:020000040800F2
:1000000070210020491B0008C1170008C317000811
:10001000C5170008C7170008C9170008000000002E
:10002000000000000000000000000000CB170008E6
:10003000CD17000800000000CF170008D1170008F6
:100040009D1B0008A11B0008A51B0008A91B000898
:10005000AD1B0008B11B0008B51B0008B91B000848
:100060009F180008BD1B0008C11B0008C51B000825
:10007000C91B0008CD1B0008D11B0008D51B0008B8
:10008000D91B0008DD1B0008E11B0008E51B000868
:10009000E91B0008ED1B0008F11B0008F51B000818
:1000A000F91B0008FD1B0008011C0008051C0008C6
:1000B000091C00080D1C0008D9170008111C0008B5
:1000C000151C0008191C00081D1C0008211C000834
:1000D000251C0008B9180008291C00082D1C000860
:1000E000311C0008351C0008391C00083D1C0008A4
:1000F000411C0008451C0008491C00084D1C000854
:10010000511C0008551C00086F180008591C0008F5
:100110005D1C0008611C0008651C0008691C0008C3
:100120006D1C0008711C0008751C0008791C000873
:10013000DFF8BC030068000607D5DFF8B803DFF876
:10014000B8130160DFF8B4130160DFF8B40300886E
:1001500080B240F2012188420CD3DFF8A803006886
:10016000000607D5DFF8A003DFF88C130160DFF885
:100170008C130160704770B50400DFF884030088B9
:1001800080B240F20121884247D3DFF880038442E5
:100190001DD2DFF87C53280000F0D4F90100C9B269
:1001A000002957D1DFF84863306850F00200306012
:1001B000DFF860030460306850F0400030602800D1
:1001C00000F0C0F9316831F00201316042E0DFF83F
:1001D0004053280000F0C9F90100C9B2002939D103
:1001E000DFF82063306850F002003060DFF8280349
:1001F0000460DFF828030068800702D5DFF81403E5
:100200000460306850F040003060280000F0ADF924
:10021000316831F0020131601CE0DFF8F45228004F
:1002200000F090F90100C9B2002913D1DFF8C062D3
:10023000306850F002003060DFF8D80204603068A7
:1002400050F040003060280000F07CF9316831F057
:1002500002013160C0B270BDF8B504000D0000208D
:10026000DFF89C02008880B240F20121884233D33B
:10027000DFF89802844217D2DFF89462300000F071
:1002800061F90100C9B200293DD1DFF86472386814
:1002900050F0010038602560300000F053F93968F3
:1002A0004908490039602EE0DFF86462300000F050
:1002B0005CF90100C9B2002925D1DFF8487238681D
:1002C00050F0010038602560300000F04EF93968C8
:1002D00049084900396016E0DFF83462300000F068
:1002E00031F90100C9B200290DD1DFF80472386874
:1002F00050F0010038602560300000F023F93968C3
:10030000490849003960C0B2F2BDDFF8E401006875
:10031000800507D4DFF80802DFF8DC110160DFF8A0
:10032000DC1101607047F8B5A525DFF8E441200035
:1003300000F008F9070000F09BF8002800D0BB256A
:100340003800C0B2002831D1DFF8A461306850F025
:1003500020003060306850F040003060200000F035
:10036000F1F807003800C0B2002817D1306830F02B
:1003700020003060306850F010003060DFF8A401D9
:100380000580200000F0DEF807003800C0B2042825
:100390000CD0306830F01000306007E03800C0B298
:1003A000042803D0306830F0100030603800C0B24C
:1003B000F2BD2DE9F0410700DFF85441200000F0C4
:1003C000C1F8FF4317F0FF01C7F307253E00360CC5
:1003D00006F0FF063F0E0200D2B2002A42D1DFF83B
:1003E0001081D8F8002052F01002C8F800200A004E
:1003F00092B2FF2A05D0DFF830010180200000F022
:10040000A1F80100C9B2002908D1290089B2FF2949
:1004100004D046480580200000F094F80100C9B2DD
:10042000002908D1310089B2FF2904D04048068054
:10043000200000F087F80100C9B2002908D1390076
:1004400089B2FF2904D03B480780200000F07AF8E9
:100450000100C9B2042905D0D8F8001031F010010C
:10046000C8F80010C0B2BDE8F0813348006870479A
:1004700000202A480068800701D5012000E0002004
:10048000C0B2704710B4194A12EB90110B680124E6
:1004900010F01F018C40234312EB9012136010BC2C
:1004A0007047002025490A68D20701D5012008E0DD
:1004B0000A68D20601D5032003E00968490700D580
:1004C0000220C0B2704700201D490A68D20701D53A
:1004D000012008E00A68D20601D5032003E009687C
:1004E000490700D50220C0B270470000002002403A
:1004F000102002400420024023016745AB89EFCD64
:10050000E0F7FF1F5020024044200240FFFF070891
:100510000000FF0F14200240542002401C20024023
:100520000820024000F8FF1F08F8FF1F0AF8FF1F0D
:100530000CF8FF1F0EF8FF1F202002400C20024085
:100540004C20024010B504000120FFF7AAFF641EF2
:100550000100C9B2012901D1002CF6D10100C9B2B4
:10056000012900D10420C0B210BD10B50400012043
:10057000FFF7A9FF641E0100C9B2012901D1002CB7
:10058000F6D10100C9B2012900D10420C0B210BDCA
:1005900010B53B49884214D03A4988421AD03A49AA
:1005A000884220D03949884226D0394988422CD106
:1005B00040F20E34200000F024F9200000F034F95D
:1005C00023E040F21144200000F01BF9200000F06D
:1005D0002BF91AE040F21244200000F012F920003A
:1005E00000F022F911E040F21344200000F009F974
:1005F000200000F019F908E040F21444200000F057
:1006000000F9200000F010F9FFE710BD38B5040034
:100610000D0000200021002100212100184A9142F4
:100620000FD0184A914210D0174A914211D0174A60
:10063000914212D0164A914213D1032000F007F9DB
:100640000FE0022000F003F90BE0022000F0FFF8B9
:1006500007E0022000F0FBF803E0022000F0F7F8CA
:10066000FFE710EB5500B0FBF5F14FF6F0700840D6
:1006700011F00F01084380B20834206031BD000042
:100680000044004000480040004C00400050004042
:100690000038014010F10C02126832F4C06210F10F
:1006A0000C031A6010F10C02126811430C30016047
:1006B000704710F10C02126832F4805210F10C03F2
:1006C0001A6010F10C02126811430C30016070477F
:1006D00010F11002126832F4405210F110031A6047
:1006E00010F110021268114310300160704710F1D0
:1006F0000C01096851F400510C3001607047002270
:1007000010F10C02126832F0080211430C30016043
:100710007047002210F10C02126832F004021143FB
:100720000C3001607047C905C90D001D016070479C
:10073000001D0068C005C00D70470A0012B2C2F368
:1007400089121018006811F01F01C840C00701D5B8
:10075000012000E0002070470A0012B2C2F38913A2
:100760001B180A0012B2C2F3891210180068012285
:1007700011F01F0112FA01F101431960704710B422
:10078000002200220123C1F389121218126811F00D
:100790001F0413FA04F4224010EB91500068090C76
:1007A00011F01F0113FA01F10140002903D0002AC2
:1007B00001D0012000E0002010BC704710B410EB05
:1007C0009152126801230C00240C14F01F04A34062
:1007D0009A4310EB9150026010BC704710B4DFF8E0
:1007E0006C21010009B212EB91110B68012410F089
:1007F0001F018C40234300B212EB9012136010BC17
:10080000704710B4DFF84421010009B212EB9111D6
:100810000B68012410F01F018C40234300B212EB3F
:100820009012136010BC704710B4DFF82021010053
:1008300009B212EB91110B68012410F01F018C40DA
:10084000A34300B212EB9012136010BC704770B556
:1008500088B00400002504A83F49102200F09AF84F
:1008600002A83E49D1E90023C0E9002368463C497B
:10087000D1E90023C0E9002335490868C0F38100AD
:10088000002803D0022805D002D335E0354834E0F3
:10089000354832E0086810F48030B0F5803F10D160
:1008A0002C48006810F08040002801D12E4800E05C
:1008B0002E480A6812F40032B2F5003F02D1400817
:1008C00000E02B480A68C2F383420B681B0101D584
:1008D00052F010020B685B0001D552F020020F2A83
:1008E00001D2921C06E0B2F10F03302B01D2521C50
:1008F00000E03F22504300E01A480A68C2F30312A6
:1009000004AB9B5C0200DA400B68C3F3022302AE27
:10091000F65C1300F3400968C1F3C2216E46765CB1
:100920001100F140E4B2002C05D0022C07D004D312
:10093000032C06D007E0050005E0150003E01D00CC
:1009400001E00D00FFE7280008B070BD0010024074
:10095000041002402C100240381B00087C1B0008C9
:10096000841B000800127A00001BB700006CDC0238
:1009700000093D0062B38B0708D0521E11F8013BFD
:1009800000F8013B00F024808B07F6D1830740F08C
:10099000208000BF103A07D330B4B1E83810103AC5
:1009A000A0E83810F9D230BC530724BFB1E80810D2
:1009B000A0E8081044BF51F8043B40F8043BD207BC
:1009C00024BF31F8022B20F8022B44BF0B780370B0
:1009D0007047121F17D35B0009D151F8043B20F870
:1009E000023B1B0C121F20F8023BF6D20BE051F821
:1009F000043B00F8013B1B0A20F8023B1B0C121FB2
:100A000000F8013BF3D238BF121D521E24BF11F86B
:100A1000013B00F8013BF8D8704730B4002513E0E3
:100A200050F8042BD30744BFA9F101039A18091FFA
:100A3000042942F8045BFAD213468C0744BF1580A0
:100A40009B1CC90748BF1D7050F8041B0029E7D143
:100A500030BC704780B54FF4C060FFF7BFFE40F276
:100A60000260FFF7BBFE40F20360FFF7B7FE40F203
:100A70000460FFF7B3FE40F20E60FFF7AFFE40F2F6
:100A80000270FFF7ABFE40F20370FFF7A7FE01BD57
:100A900010B500207B4C022303221021200000F01F
:100AA000FFF84FF4805303221021200000F0F8F8E3
:100AB000042303220421200000F0F2F84FF4007315
:100AC00003221821200000F0EBF84FF4806303228A
:100AD0000421200000F0E4F8002416E0042C09DAD8
:100AE000694800EBC4014B680322102150F8340020
:100AF00000F0D6F8654800EBC4014B6803220421DE
:100B000050F8340000F0CCF8641C102CE6DB10BD6B
:100B100080B50221002000F049F9022200210420C2
:100B200000F09EF9042000F0E7F9002200210820DF
:100B300000F0F5F901BD7FB504000E00150020009E
:100B400000F04AFA684600F0B1FAADF80060002003
:100B5000ADF802000020ADF80400ADB2029500200F
:100B6000ADF806006946200000F0AEFA0121200031
:100B700000F013FB0121200000F0FAFA200000F041
:100B8000F2FA7FBD38B50400414D2800FFF700FDA3
:100B900021002800FFF73AFD00212800FFF789FD1A
:100BA00000212800FFF794FD00212800FFF772FDC7
:100BB00004212800FFF7ADFD08212800FFF79FFD65
:100BC0002800FFF794FD01220021252000F0A7F95D
:100BD00040F205312800FFF7BFFD31BDF8B5040034
:100BE0000D00002004EB050101F8010C02210AE0D0
:100BF00004EB050010F8012C605C821804EB050082
:100C000000F8012C491C681E8142F1D300260BE03C
:100C10001F4FA15D3800FFF786FD07213800FFF761
:100C20008CFD0028F9D0761CAE42F1D3F1BD80B521
:100C3000032018490870FFF70DFFFFF729FF4FF455
:100C4000A06000F067F95FF4E130FFF79BFFFFF76A
:100C50005FFF4FF47A7277210F48FFF76CFF42F283
:100C6000107277210D48FFF766FF002201211E2038
:100C700000F055F901220121322000F050F900F076
:100C8000ABFA01BD00080140040000202400002050
:100C9000003801406701002000080040000C0040BF
:100CA000F0B40024002411F00F04CD060DD5042A61
:100CB00009D154F0030410F13C0212681A4310F1F8
:100CC0003C052A6001E022431400002523E0482966
:100CD0001FD10122AA401A4010F110073A6018E013
:100CE0001A00EA40D20715D506680F272A00D2B2AB
:100CF00092009740BE432A00D2B2920014FA02F248
:100D000016432829E3D10122AA401A4010F1140702
:100D10003A6006606D1C2A0092B2082AE0D30825CA
:100D200027E0482922D10122AA401A4010F11007D9
:100D30003A601BE01A00EA40D20719D5021D166876
:100D40000F272A00083AD2B292009740BE432A00E9
:100D5000083AD2B2920014FA02F216432829E0D1DE
:100D60000122AA401A4010F114073A60021D1660D1
:100D70006D1C2A0092B2102ADCD3F0BC70471030F0
:100D800001607047143001607047D2B2002A02D06F
:100D90001030016001E014300160704708300068D5
:100DA000084201D0012000E00020704710B400226A
:100DB0000F2311F00302D2B2920013FA02F20B00D9
:100DC000DBB2042B0EDA224B1C6834EA02021A60F2
:100DD0001A68C0B211F00301C9B2890088401043FB
:100DE000186033E00B00DBB2082B0EDA194B1C68DD
:100DF00034EA02021A601A68C0B211F00301C9B2E3
:100E0000890088401043186020E00B00DBB20C2BF7
:100E10000EDA114B1C6834EA02021A601A68C0B27A
:100E200011F00301C9B289008840104318600DE039
:100E30000A4B1C6834EA02021A601A68C0B211F048
:100E40000301C9B2890088401043186010BC704784
:100E5000080001400C000140100001401400014056
:100E6000F0B4274C236883432360264D2B688343CB
:100E70002B60254E336883433360244B1F688743C0
:100E80001F60C9B2002902D0012904D007E02168FF
:100E90000143216003E0296801432960FFE7D2B2E2
:100EA000002A03D0022A10D008D315E0316801438C
:100EB0003160196831EA000018600DE03168814343
:100EC000316019680843186006E0316801433160F9
:100ED000196808431860FFE7F0BC70470C490968BF
:100EE0000140074A12681040002903D0002801D0B1
:100EF000012000E0002070470549086070470000AD
:100F00000004014004040140080401400C040140B5
:100F1000140401402C4908432C490860704770B5FF
:100F200004000D0016000020002000202748016862
:100F300011F4E061B1F5E06F02D10020042129E055
:100F4000016811F4E061B1F5C06F02D10120032105
:100F500020E0016811F4E061B1F5A06F02D1022038
:100F6000022117E0016811F4E061B1F5806F02D150
:100F7000032001210EE0006810F4E060B0F5407F2E
:100F800002D10420002105E04FF4A060FFF7C2FF6A
:100F900002200221EDB2D0F104008540F6B20F200C
:100FA000D1F10401C840064035432D010848210015
:100FB000C9B24554012114F01F0081400548E4B234
:100FC000641140F8241070BD0000FA050CED00E03B
:100FD00000E400E000E100E010B5B0F1804F25D062
:100FE000DFF8C01188422AD0DFF8BC1188422FD028
:100FF000DFF8B811884234D0DFF8B411884239D014
:10100000DFF8B01188423ED0DFF8AC11884204D03E
:10101000DFF8A81188423FD047E040F20B342000AF
:10102000FFF7EFFB2000FFF7FFFB3EE04FF480608F
:10103000FFF7E7FB4FF48060FFF7F6FB35E040F287
:1010400001442000FFF7DDFB2000FFF7EDFB2CE063
:1010500040F202442000FFF7D4FB2000FFF7E4FB3E
:1010600023E040F203442000FFF7CBFB2000FFF712
:10107000DBFB1AE040F204442000FFF7C2FB200033
:10108000FFF7D2FB11E040F205442000FFF7B9FB67
:101090002000FFF7C9FB08E040F20D342000FFF705
:1010A000B0FB2000FFF7C0FBFFE710BD002101806F
:1010B00000214180002181804FF6FF718160002175
:1010C000C18000210173704710B40A8810F1280311
:1010D0001A60DFF8E430984212D0B0F1804F0FD0A0
:1010E000DFF8C02090420BD0DFF8BC20904207D040
:1010F000DFF8B820904203D0DFF8C02090420BD137
:10110000026832F07002026004684A881443046086
:1011100004688A88144304608A6810F12C042260F1
:10112000DFF88C2090420BD0DFF88820904207D067
:10113000026832F4407202600468CA881443046092
:10114000984203D0DFF87420904203D1097B10F15C
:101150003002116010F11401096851F001011430DE
:10116000016010BC7047016851F0010101607047D7
:1011700010F10C02126811430C300160704710F13D
:101180000C0212680A4010300068084203D0002A9E
:1011900001D0012000E000207047C94310300160F9
:1011A000704700000004004000080040000C0040B0
:1011B0000010004000140040002C014000340140A9
:1011C000BFF34F8F3F490A6812F4E0623E48024382
:1011D0000A60BFF34F8FFEE710B5FEF7A9FFFFF7D8
:1011E00094F840F20730FFF74DF9384CFFF73DF91E
:1011F0002060206870F0C00010F1010F0DD0344C59
:10120000FFF791F8207033490868002803D0086878
:10121000FFF7CFF82070FFF7D3FF10BD2DE9F041A5
:1012200004000D0016002F002848007810F0C00FB1
:1012300008D110E021683800FFF70EF888F80000A8
:101240003F1D10347019874205D2DFF8848098F86A
:1012500000000028EED00020BDE8F0810068704753
:10126000F8B504000D0000201848007810F0C00FF9
:1012700013D040F20730FFF705F9002607E04FF4DE
:10128000006000FB0640FEF776FF3870761CAE4229
:1012900003D20F4F38780028F1D00020F2BD11B5ED
:1012A00081B00D4C01212000FFF7DAFF012221005F
:1012B00001A8FFF7B3FF13BD80B50748FFF7CEFFC6
:1012C00002BD00000CED00E00400FA050000002063
:1012D00066010020500100200090010830B44278DF
:1012E000521C8023047892FBF3F503FB15229442F1
:1012F00001D100200BE04278024491704178491CF2
:10130000802291FBF2F302FB13114170012030BCEB
:10131000704710B4010008784A78904201D100204B
:101320000BE00878084480780A78521C802392FBEE
:10133000F3F403FB14220A70C0B210BC70470FB460
:101340009DF800009DF80110884201D1012000E0C5
:101350000020C0B204B0704780B50B00C0B20128B5
:1013600010D003280FD005280ED007280DD009284B
:101370000CD00B280BD00C280AD00D2814D00E2826
:1013800013D015E014E013E012E011E010E00FE0DC
:1013900042481A79597900EBC10149685B7950F8E4
:1013A0003300FFF7F2FC03E002E000F023F9FFE76F
:1013B00001BD78B59DB004000FE0394801782A7866
:1013C00052EA01224AF6CC718A4204D100213170DE
:1013D0000021344A117029780170210084B06846D8
:1013E0008222FFF7C7FA0FBCFFF7A9FF002853D1ED
:1013F0002D4D2000FFF78DFF28702C488442ECD142
:101400002B4E3078002803D0022831D018D3D4E7EF
:10141000284801782A7852FA81F1FF290DD126490E
:1014200002780A702A784A702978007850FA81F098
:10143000224908600120307001E029780170BCE782
:10144000184829781C4A03781A4491701B490A6885
:101450002B7852FA83F20A600178491C01700078F7
:1014600014490978491E884201D102203070A4E74E
:101470001248007800F0FF002978884206D10E4912
:10148000C8780F4A1070C878FFF766FF002005493A
:1014900008700320307090E71EB070BD040000207B
:1014A00069010020680100206A010020A4000020DA
:1014B000670100206B010020280100205801002056
:1014C0006C01002080B502215C48FFF758FC002029
:1014D0005B49087001BD80B502215848FFF752FCF6
:1014E00001205749087001BD80B555480078002893
:1014F00002D0FFF7E7FF01E0FFF7EDFF01BD514923
:101500004A78C0B2824203D100204870012000E036
:101510000020704780B54FF480514848FFF72FFCFA
:10152000FFF7D9FF01BD80B54FF480514348FFF765
:1015300029FCFFF7C7FF4348002141700021C1701B
:1015400001BD4049C878002803D10120C87000209F
:10155000486070473B49C878002801D1002008E066
:10156000486847F23051884201D3012000E0002052
:10157000C0B270473EB5002400206846334991E868
:101580002C0080E82C0000250AE02F4800EBC50164
:10159000496850F83500FFF701FCA84004436D1C72
:1015A000102DF2D32A480168A1420AD0046020001D
:1015B0008DF80600240A8DF8074009216846FFF7D8
:1015C0000DFB37BDE0B568462249D1E90023C0E9EB
:1015D000002307216846FFF701FB07BDE0B5684619
:1015E0001D49D1E90023C0E9002307216846FFF720
:1015F000F5FA07BD3EB5002400206846174991E87A
:101600002C0080E82C0000250AE00F4800EBC50103
:10161000496850F83500FFF7C1FBA84004436D1C32
:10162000102DF2D320008DF80600240A8DF8074013
:1016300009216846FFF7D2FA37BD000000080140D3
:101640006D0100204801002024000020581B0008E4
:101650005C0100208C1B0008941B0008641B000820
:1016600080B54D49086850F001000860086880079F
:10167000FCD54A4A106850F08000106000200090AD
:1016800002E00098401C009000985028F9D31068A0
:1016900050F0900010600020009002E00098401C84
:1016A000009000985028F9D31068800880001060DE
:1016B0000B683B4803400B605FF41F00394B186018
:1016C000086830F48020086000201060002036494F
:1016D000086000F001F801BD80B500F001F801BD1F
:1016E00010B4002200202C49086850F480300860B3
:1016F000521C086810F40030002803D14FF6FF7028
:101700008242F5D10868800300D4FEE727480268CA
:1017100052F080520260264A106850F44040106037
:101720001E4B1868186018681860186850F48060BC
:101730001860186830F440301860186850F4403071
:1017400018601C681B4804401C601C681A4804434D
:101750001C60086850F08070086008688001FCD543
:10176000106850F48030106014480168C903FBD53C
:10177000116851F40031116001688903FCD51868C3
:10178000800880001860186850F00200186018681F
:101790000007FCD510BC7047001002400410024046
:1017A000FFFFF6FE081002402C1002401C10024001
:1017B00000700040FFFFC3B700000C080470004039
:1017C0007047FEE7FEE7FEE7FEE7704770477047A9
:1017D00080B500F099F801BD10B5424C0121200000
:1017E000FFF7CDFC012841D101212000FFF7D5FCF6
:1017F0003D4C2078002828D004213C48FFF7CEFA41
:10180000002813D140F6B83039490A88824203DAF9
:101810000888401C088018E00A88824215DB0020F6
:10182000088002206070002020700EE0304801889F
:10183000332904DB002101800120607003E00021D6
:1018400001800020607000202070E07800280DD01A
:101850006068401C606060684FF4FA71B0FBF1F2A0
:1018600001FB1200002801D1FFF73EFE10BD10B5AC
:10187000204C01212000FFF782FC01280ED101211C
:101880002000FFF78AFC1C480168491C01600168C0
:10189000042903DB00210160FFF76CFE10BD80B559
:1018A0000420FFF71BFB002805D00420FFF724FBD2
:1018B00001200D49087001BD38B5104C104D2900AC
:1018C0002000FEF75CFF00280BD029002000FEF767
:1018D00075FF2000FEF72CFF0100C9B20948FFF791
:1018E000FDFC31BD00080040480100200008014017
:1018F00064010020000C0040540100200038014029
:1019000005030500A400002004490868002802D04F
:101910000868401E08607047000000006001002059
:1019200010B50024FFF783F906E0FFF7F3FD45F259
:101930005550FFF7B4FC02243A48FFF73AFD200067
:10194000C0B2002806D0022820D00DD3042857D0DA
:1019500037D365E0FFF7B6FDFFF7AEFC4AF6AA21E4
:101960008842E2D10124E7E70120FFF7C8FD002803
:1019700004D10220FFF7C3FD002806D0FFF7CAFDFF
:1019800045F25550FFF78BFC0224D5E72648007836
:10199000012804D14FF6FF70244908600324012078
:1019A000FFF7ADFD002804D10220FFF7A8FD0028B5
:1019B00006D0FFF7B8FD4AF6AA20FFF770FC012415
:1019C000BAE70120FFF79BFD002802D0FFF7FAFDE0
:1019D00009E00220FFF793FD002804D0FFF7FEFD89
:1019E000FFF7AFFD042410480178092901D1022432
:1019F00005E000780B2802D1FFF7A3FD04249BE744
:101A000009480078072803D0FFF7A4FD002806D076
:101A1000FFF789FD4AF6AA20FFF741FC01248BE776
:101A20008AE700BFA40000206C0100205C010020B8
:101A3000F0B40246106895681318506803EB500420
:101A4000C0071CD54D441AE013F8017B05F8017B53
:101A5000491EF9D198B113F8011BC6F38106032E74
:101A600008BF13F8016B01EB06214942801C294491
:101A700005D011F8016B05F8016B401EF9D1A342A6
:101A80000ED013F8016B16F0030104BF13F8011B0D
:101A9000C91C30090F28DBD113F8010B0F30D7E731
:101AA000F0BC02F10C00704710B5074979441831B9
:101AB000064C7C44163404E00A68081D114488472B
:101AC0000146A142F8D110BD08000000240000002A
:101AD0004BEFFFFFCC000000A4000020000000003E
:101AE00051FFFFFF980100009A0000000000002055
:101AF00000F00DF8002801D0FFF7D6FFAFF300800B
:101B00000020AFF30080FFF70BFF00F002F8012088
:101B1000704700F001B800000746384600F002F8B0
:101B2000FBE7000080B5AFF30080024A11001820E7
:101B3000ABBEFBE726000200000000000000000032
:101B400001020304060708090148804701480047CD
:101B500061160008711B0008AFCC05FA010D0000EA
:101B600000000000AFCC05FA010E000000000000EC
:101B7000AFF30080AFF30080FFF7BAFF0000000072
:101B8000010203040000000001020304AFCC03FCC7
:101B900001030000AFCC03FC01050000FFF7FEBF0E
:101BA000FFF7FEBFFFF7FEBFFFF7FEBFFFF7FEBF69
:101BB000FFF7FEBFFFF7FEBFFFF7FEBFFFF7FEBF59
:101BC000FFF7FEBFFFF7FEBFFFF7FEBFFFF7FEBF49
:101BD000FFF7FEBFFFF7FEBFFFF7FEBFFFF7FEBF39
:101BE000FFF7FEBFFFF7FEBFFFF7FEBFFFF7FEBF29
:101BF000FFF7FEBFFFF7FEBFFFF7FEBFFFF7FEBF19
:101C0000FFF7FEBFFFF7FEBFFFF7FEBFFFF7FEBF08
:101C1000FFF7FEBFFFF7FEBFFFF7FEBFFFF7FEBFF8
:101C2000FFF7FEBFFFF7FEBFFFF7FEBFFFF7FEBFE8
:101C3000FFF7FEBFFFF7FEBFFFF7FEBFFFF7FEBFD8
:101C4000FFF7FEBFFFF7FEBFFFF7FEBFFFF7FEBFC8
:101C5000FFF7FEBFFFF7FEBFFFF7FEBFFFF7FEBFB8
:101C6000FFF7FEBFFFF7FEBFFFF7FEBFFFF7FEBFA8
:101C7000FFF7FEBFFFF7FEBFFFF7FEBF12FF013009
:101C800006000C0140000200000842010813800019
:101C90000111085240085220085210082208081268
:101CA00008302129210852080851403118210852D2
:101CB00040085220085210085208084204085202F4
:091CC00058520158528008213FDE
:0400000508001B7163
:00000001FF
