:020000040800F2
:1000000058040020D50000089D0400089904000849
:1000100000000000000000000000000000000000E0
:10002000000000000000000000000000CD070008F4
:10003000000000000000000011050008E9080008A9
:100040000501000800000000050100080501000886
:10005000050100087D0100080501000805010008F0
:100060000000000005010008050100080501000866
:100070000501000805010008050100080000000056
:1000800069090008000000000000000005010008E8
:100090000000000005010008050100080501000836
:1000A000000000000501000800000000F10B00083E
:1000B000F50C000800000000000000000501000829
:1000C0000348854600F048F8004800475D130008E3
:1000D000580400200C4880F308880C480168090E79
:1000E0000B4A914205D10B480B4901600B480C4962
:1000F00001600C4880470C480047FEE7FEE7FEE73A
:10010000FEE7FEE7FEE700005804002004000000C0
:100110001F00000018100240010000000000014014
:1001200000000000ED080008C100000830B50B46D3
:10013000014600202022012409E00D46D5409D42C1
:1001400005D31D469540491B254695404019154647
:10015000521E002DF1DC30BD064C0125064E05E097
:10016000E36807CC2B430C3C98471034B442F7D3D8
:10017000FFF7AAFFB8180008D818000810B501202A
:1001800000F010F8002804D001200249087000F0A7
:1001900003F810BD45000020014948617047000088
:1001A0000004014001460020044A52690A40002A26
:1001B00001D0012000E00020704700000004014051
:1001C000002120498279002A35D00A461268036846
:1001D0009A430B461A600A46526803689A430B46D4
:1001E0005A60027951180A6803681A430A60154A6E
:1001F000926803689A43134B9A601A46D268036860
:100200009A43104BDA604279102A0CD11A46926850
:1002100003681A430B4B9A601A46D26803681A4364
:10022000084BDA600DE00749427951180A68036803
:100230001A430A6005E0027951180A6803689A4374
:100240000A607047000401400149C860704700001F
:100250000020024030B5044604250B20000400F0C5
:100260008FF80546042D17D10C4800690221084378
:100270000A4908610846446100694021084307496A
:1002800008610B20000400F07BF805460348006974
:100290000221884301490861284630BD0020024000
:1002A00004200D49C968C907C90F002901D00120E0
:1002B00010E00949C96810221140002901D002202C
:1002C00008E00549C96804221140002901D0032033
:1002D00000E004207047000000200240034800694D
:1002E0008021084301490861704700000020024056
:1002F00078B506460C460425002000900B2000042B
:1003000000F03EF80546042D24D113480069012170
:1003100008431149086134800B20000400F030F8D4
:100320000546042D10D1B01C0090200C00990880C7
:100330000B20000400F024F8054607480069400837
:1003400040000549086105E0034800694008400095
:1003500001490861284678BD00200240054800692F
:1003600080210840002804D003480249486003481F
:10037000486070470020024023016745AB89EFCDFC
:1003800010B503460424FFF78BFF044603E0FFF794
:1003900087FF04465B1E012C01D1002BF7D1002BF7
:1003A00000D10524204610BDF0B50A4600210023E7
:1003B000002400BF3DE001258D402B4615681D40FF
:1003C0002C469C4234D11579012D02D01579022D8D
:1003D00016D185684F000326BE40B5438560557928
:1003E0004E00B540866835438560858801268E407D
:1003F000B5438580858896798E40B6B23543858031
:1004000005684F000326BE40B543056015794E00D0
:10041000B540066835430560C5684F000326BE40F9
:10042000B543C560D5794E00B540C6683543C56053
:10043000491C1029BFD3F0BDF0B5002300244D079F
:10044000EE0E1546B5402B46CD10AE0005462035C4
:10045000AD594E07F70E0F26BE40B543CE10B6007D
:1004600007462037BD51CD10AE003D46AD591D4366
:100470002C46CD10AD003E467451F0BD0246002022
:10048000138A0B40002B01D0012000E000207047B0
:10049000018570478161704700BFFEE7704700002B
:1004A00000218278002A27D0184A03231B02D21881
:1004B00003789B109B00D15802789207D30EFF223D
:1004C0009A400B469343194642789207120E0378DE
:1004D0009B07DB0E9A4011430C4A03231B02D218E0
:1004E00003789B109B00D1500278D306DB0E0122CB
:1004F0009A40064B1A6007E00278D306DB0E012211
:100500009A40024B80331A607047000000E100E01F
:1005100070470000002905D0054A52690243044B88
:100520005A6104E0024A52698243014B5A617047A2
:1005300000100240002905D0054AD2690243044B4D
:10054000DA6104E0024AD2698243014BDA61704702
:1005500000100240002905D0054A92690243044B6D
:100560009A6104E0024A92698243014B9A617047A2
:1005700000100240FEB5044600250026002002902F
:10058000019000900027864840680C2108400546ED
:10059000002D06D0042D07D0082D08D00C2D2CD10D
:1005A00028E0804820602BE07E48206028E07C48DE
:1005B00040680F21890408400646794840680321B5
:1005C000C90308400290B00C861C0298002803D191
:1005D0007548374647430BE07148C06A0007000F73
:1005E000401C01906F480199FFF7A0FD704307463A
:1005F000276005E06D48206002E06A48206000BF87
:1006000000BF67484068F021084005462D0968484A
:10061000405D009020680099C84060606048406874
:1006200007210902084005462D0A6148405D0090F7
:1006300061680098C140A1605948006BFF210131F9
:100640000840884202D05B48E0600DE054484068B2
:10065000012189030840884203D0A0684008E06077
:1006600002E0A0688008E0604D48006B402108402F
:10067000402802D05048206102E00120C0032061E0
:100680004748006B10210840102802D0454860619F
:1006900001E0206860614248006B8007800F0028FD
:1006A00002D1A068A06119E03D48006B8007800F6F
:1006B000012802D12068A06110E03948006B800752
:1006C000800F022802D18003A06107E03448006B4C
:1006D0008007800F032801D13248A0613048006BA9
:1006E000032109040840002802D1A068E06120E04D
:1006F0002B48006B032109040840012109048842AA
:1007000002D12068E06114E02548006B0321090450
:10071000084001214904884202D18010E06108E0CC
:100720001F48006B032109040840884201D11D487D
:10073000E0611B48006B032189040840002802D1B6
:10074000A068206220E01648006B0321890408405D
:1007500001218904884202D12068206214E01048F7
:10076000006B0321890408400121C904884202D199
:100770000011206208E00A48006B03218904084048
:10078000884201D1074820620548006B802108405B
:10079000802802D00548606200E06762FEBD00006C
:1007A0000010024000127A0000093D00006CDC02DB
:1007B00000000020809FD5001280000001468A00C2
:1007C000014BD218106870470060000870470000A5
:1007D00030B500228B071C0F0F23A3401A460B4B8A
:1007E0008C10A4001B599343084C8D10AD0063512D
:1007F00023468C10A4001B598C07250F0446AC40DF
:100800002343024C8D10AD00635130BD0800014000
:100810000CB50020019000903148006801210904C6
:1008200008432F49086000BF2D4800680121490492
:10083000084000900198401C01900098002804D1C5
:100840000521090301988842EED12548006801215D
:1008500049040840002802D00120009001E0002057
:1008600000900098012839D111201E4908601C48C9
:1008700040681B4948600846406848600846406830
:100880007F21C90388431649486008464068112102
:100890000904084312494860084600680121090616
:1008A00008430F49086000BF0D4800680121490650
:1008B00008400028F8D00A484068800880000849AD
:1008C000486008464068022108430549486000BF67
:1008D000034840680C2108400828F9D10CBD0000ED
:1008E00000100240002002407047000010B51B4875
:1008F0000068012108431949086008464068184902
:1009000008401649486008460068164908401349DF
:100910000860084600680121890488430F4908607F
:10092000084640683F21090488430C49486008464E
:10093000C06A00090001C8620846006BFF215431FB
:100940008843064908630846406B400840004863F6
:1009500000208860FFF75CFF10BD0000001002401F
:100960000CB8FF08FFFFF6FE10B50121354800F076
:10097000E3F8002864D00121324800F0CBF8324877
:100980000078002849D001210920C006FFF776FD34
:10099000002820D12D4800882D49884205DA2B48AF
:1009A0000088401C2949088037E0284800882849E9
:1009B000884232DB00202549088002202549087042
:1009C00000202149087000BF3D2323A2264927A00B
:1009D00000F012FB21E01D48008832280DDD0020C8
:1009E0001A49088001201B49087000BF48231AA239
:1009F0001D492BA000F000FB0CE0002013490880EB
:100A00001449087000BF502313A2174932A000F008
:100A1000F3FA00BF00200C4908703C480078002819
:100A20000ED03B480068401C39490860FF21F53171
:100A300037480068FFF77AFB002901D100F0E8FD94
:100A400010BD0000000400404500002050000020C0
:100A5000B80B000046000020757365725C6D735F13
:100A60006770696F2E630000A51800080A0D5B66A9
:100A7000756E633A25732066696C653A2573206C40
:100A8000696E653A25645D20706F776572206B65CD
:100A900079206C6F6E6720707265737321210A0074
:100AA0000A0D5B66756E633A25732066696C653A5C
:100AB0002573206C696E653A25645D20706F7765DB
:100AC00072206B65792073686F7274207072657321
:100AD0007321210A000000000A0D5B66756E633AFF
:100AE00025732066696C653A2573206C696E653ADA
:100AF00025645D20706F776572206B657920726563
:100B00006C6561736521210A000000004800002027
:100B10004C000020CA43028270470000002904D024
:100B2000028801231A43028003E00288014B1A4025
:100B300002807047FEFF000030B50246002000230F
:100B40000024158A0D402B4695890D402C46002B1C
:100B500003D0002C01D0012000E0002030BD002A8D
:100B600003D083890B43838102E083898B43838194
:100B70007047000000220288154B984206D00123DE
:100B80009B07984202D0134B984203D1124B1A4054
:100B90004B881A43114B984203D0114B1A400B89D2
:100BA0001A4302804B68C3620B880385084B984246
:100BB00008D00C4B984205D00B4B984202D00B4BFF
:100BC000984201D18B7A038601238382704700000B
:100BD000002C0140000400408FFF00000010004086
:100BE000FFFC00000040014000440140004801407B
:100BF00038B50121284800F00DF9002803D0012163
:100C0000254800F0F9F80821234800F003F90028EE
:100C100003D00821204800F0EFF802211E4800F020
:100C2000F9F8002803D002211B4800F0E5F81B4921
:100C3000194800F0F9F801282BD1174800F0B8F94D
:100C40000446AA2C04D016480078002800D138BDEC
:100C500013480078400013490C5211480078401C9A
:100C60000F49087008460078032812D10D4800F09B
:100C7000D7FA0D49087000BF0020085655230BA273
:100C80000E4900900EA000F0B7F900BF0020044903
:100C9000087000BFDBE700000038014005010500D7
:100CA0003500002036000020340000207573657286
:100CB0005C6D735F75736172742E63008118000838
:100CC0000A0D5B66756E633A25732066696C653A3A
:100CD0002573206C696E653A25645D2075736172B9
:100CE0007431207263765F636D64203D2025640A51
:100CF0000000000038B50121284800F08BF80028DA
:100D000003D00121254800F077F80821234800F09E
:100D100081F8002803D00821204800F06DF8022156
:100D20001E4800F077F8002803D002211B4800F08D
:100D300063F81B49194800F077F801282BD11748B0
:100D400000F036F90446AA2C04D016480078002892
:100D500000D138BD13480078400013490C521148A7
:100D60000078401C0F49087008460078032812D10B
:100D70000D4800F055FA0D49087000BF00200856D4
:100D800074230BA20E4900900EA000F035F900BFAD
:100D900000200449087000BFDBE700000044004069
:100DA000050105003C0000203E000020340000202A
:100DB000757365725C6D735F75736172742E630019
:100DC000931800080A0D5B66756E633A25732066FA
:100DD000696C653A2573206C696E653A25645D20FF
:100DE000757361727432207263765F636D64203D47
:100DF0002025640A0000000001627047002904D029
:100E0000026801231A43026003E00268520852009C
:100E10000260704702460020D3690B40002B01D0CE
:100E2000012000E00020704770B502460B46002408
:100E30000021002500201E04350ED9B201268E4067
:100E40003146012D02D11668314006E0022D02D153
:100E50005668314001E0966831401C0C0126A640DE
:100E60003446D6693440002903D0002C01D001203B
:100E700000E0002070BDF8B503460024002600966F
:100E80000025002018460E04340ECEB2009601272D
:100E9000009EB7403D46022C01D1001D02E0032C0C
:100EA00000D10830002A03D006682E43066002E015
:100EB0000668AE430660F8BDF0B58BB004460D463B
:100EC000002700200A90002620684008400020608B
:100ED000666803210903304688430646A86806432E
:100EE000666026682D480640E968686808432969F5
:100EF000084306432660A66803210902304688435A
:100F0000064668690643A6606846FFF733FB244837
:100F1000844202D106980A900DE02248844202D110
:100F200007980A9007E02048844202D108980A9066
:100F300001E002980A9020680121C90308400028B6
:100F40000CD029680A9A5000FFF7F0F80746296884
:100F50000A9A5000FFF7EAF80E4609E029680A9855
:100F6000FFF7E4F8074629680A98FFF7DFF80E460E
:100F700028684008B04200D87F1C20680121C903BE
:100F80000840002806D03807460F38460749084071
:100F900030430746A7810BB0F0BD0000F3E9FFFF27
:100FA000003801400044004000480040F0FF0000CD
:100FB0000146888CC005C00D7047CA05D20D028558
:100FC0007047000070B504460D46FFF7C7F935209D
:100FD000FFF73AF90748FFF73DF9A100054A8818DD
:100FE0002946FFF785F93520FFF72EF9FFF776F947
:100FF00070BD0000006000080FB410B503A9044BD9
:10100000044A029800F026F810BC08BC04B0184747
:10101000691200085400002030B47446641E25781C
:10102000641CAB4204D3635D5B00E31830BC18471B
:101030001D46F8E702E008C8121F08C1002AFAD1CD
:1010400070477047002001E001C1121F002AFBD148
:1010500070470000FFB58DB00F460546002606E03C
:1010600025280AD0109A0F9990476D1C761C287875
:101070000028F5D1304611B0F0BD00240121674AA7
:10108000009400E004436D1C2B780846203B9840F8
:101090001042F7D128782E2815D10420044368780F
:1010A0006D1C2A280AD101CF6D1C00900BE000991D
:1010B0000A225143303940186D1C009028780146AF
:1010C00030390929F3D92878692843D006DC00286B
:1010D000D0D063280BD0642804D13BE073280FD014
:1010E00075284CD0109A0F999047761C94E0387868
:1010F000694608720020487202A80190012003E0AE
:10110000386801900020C0433F1D61070CD50024C2
:1011100000E0641C00998C420FDA8442F9DB0199EB
:10112000095D0029F5D108E0002400E0641C844238
:10113000FCDB0199095D0029F8D1361907E0019817
:1011400001990078491C0191109A0F999047641EEB
:10115000F5D261E00A20019001CF002802DA404276
:101160002D2102E0210504D52B216A4611720121AF
:1011700003E0E10701D02021F7E70C9104E00A2009
:10118000019001CF00210C910BA90B9108E001996E
:10119000FEF7CCFF0A460B993032491E0B910A70BC
:1011A0000028F4D10B9803A9081A20300190600799
:1011B00001D5009801E0012000900199884203DDEB
:1011C00001460198081A00E000200024009006E083
:1011D00002A8109A005D0F999047641C761C0C9829
:1011E0008442F5DB04E0109A30200F999047761C7A
:1011F0000099481E00900029F5DC08E00B980B9937
:101200000078491C0B91109A0F999047761C019910
:10121000481E01900029F1DC6D1C28E70928010017
:1012200010B50346002218E000210CE006205043D0
:101230000C4C00194C00005B4C001C5BA04200D021
:1012400003E0481CC1B20329F0DB00BF032901D130
:1012500050B210BD00BF501CC2B2062AE4DB002011
:10126000C043F6E71000002070B504460D46A1B259
:101270000548FFF7A2FE00BF80210348FFF7CAFD23
:101280000028F9D0204670BD0038014000B585B077
:1012900001214804FFF73EF902200390012168462E
:1012A000017400218174012141740021C17403A9DA
:1012B0000920C006FFF778F8012003900021684656
:1012C00001740121C17403A90920C006FFF76CF85D
:1012D00001214804FFF71EF9012003900021684610
:1012E00001740221C17403A90920C006FFF75CF84C
:1012F00001210846FFF72EF900210846FFF768FA9A
:10130000012000900021684601710C2141710121EA
:101310008171FEF755FF0521684601720021417277
:101320000121817202A8FFF7BBF805B000BD1CB512
:1013300001214804FFF7EEF81020009001216846D3
:10134000017100218171012141710021C171694642
:101350000920C006FFF728F81CBD0000002400F09B
:10136000BBF900F034F9A3E02300FFF755FE0504B4
:10137000142544879F0000F033F900F023F94D490C
:10138000884201D1012405E000F070F94A4800F0DC
:1013900076F902248BE0012000F048F9002804D1FE
:1013A000022000F043F9002805D000F05FF9424820
:1013B00000F065F902247AE0002000F005FA002828
:1013C00008D000BF3F233DA23F4940A0FFF714FED5
:1013D00000BF0324012000F029F9002804D10220D5
:1013E00000F024F9002805D000F02EF9314800F073
:1013F00046F901245BE0012000F018F900280AD02A
:10140000012000F0F1F900BF4F232CA22E4939A092
:10141000FFF7F2FD12E0022000F008F900280DD0DD
:10142000022000F0E1F900BF542324A226493CA089
:10143000FFF7E2FD00BF00F03DF90424042000F0B6
:10144000C3F9002809D000BF5B231CA21E493FA09E
:10145000FFF7D2FD00BF02240FE0052000F0B4F931
:1014600000280AD000BF602314A2174941A0FFF74B
:10147000C3FD00BF00F01EF9042418E0032000F0B3
:10148000A3F9002803D100F001F900280DD000BF16
:101490006B230AA20C4941A0FFF7AEFD00BF00F08C
:1014A000D3F8044800F0EBF8012400E000BF00BFCF
:1014B0005AE70000AAAA000055550000757365722E
:1014C0005C6D61696E2E63007C1800080A0D5B6616
:1014D000756E633A25732066696C653A2573206CD6
:1014E000696E653A25645D2072637620434D445FE2
:1014F00041200A000A0D5B66756E633A257320660B
:10150000696C653A2573206C696E653A25645D20C7
:1015100073656E6420434D445F42200A0000000062
:101520000A0D5B66756E633A25732066696C653AD1
:101530002573206C696E653A25645D2073656E6461
:1015400020434D445F43200A000000000A0D5B6603
:10155000756E633A25732066696C653A2573206C55
:10156000696E653A25645D2072637620434D445F61
:1015700045200A000A0D5B66756E633A2573206686
:10158000696C653A2573206C696E653A25645D2047
:1015900072637620434D445F46200A000A0D5B6665
:1015A000756E633A25732066696C653A2573206C05
:1015B000696E653A25645D2072637620434D445F11
:1015C00044200A0010B50020FFF7F8F810BD10B550
:1015D000FFF7ADFEFFF75AFE012000F023F910BD22
:1015E00010B510210920C006FEF754FF0020014964
:1015F000087010BD4400002010B510210920C0065D
:10160000FEF746FF01200149087010BD440000208C
:1016100010B505480078002802D0FFF7E1FF01E08F
:10162000FFF7EAFF10BD0000440000200146054816
:101630000078884204D10020024A107001207047CF
:101640000020FCE74600002010B502210920C0065A
:10165000FEF71EFFFFF7C4FF002002490870024991
:10166000087010BD460000204800002010B502217F
:101670000920C006FEF70EFFFFF7BEFF10BD10B534
:10168000044621460020FFF79DFC10BD0648007867
:10169000002800D17047054800680549884201D3F9
:1016A0000120F7E70020F5E7480000204C0000206B
:1016B0003075000006480078002800D070470120EF
:1016C0000349087000200349086000BFF6E70000E6
:1016D000480000204C00002000B589B001214804DA
:1016E000FEF718FF01218803FEF734FF01214804AB
:1016F000FEF720FF01220921C806FEF79DFE012208
:1017000002210920C006FEF797FE01220A210920C6
:10171000C006FEF791FE012203210920C006FEF754
:101720008BFE812080000790022108A80170012112
:101730004170002181700121C17007A90920C006F4
:10174000FEF732FE8120C000079007A90920C006DD
:10175000FEF72AFEE1204002019000200290039053
:10176000049006900C20059001A91448FFF7A4FBF3
:1017700001A91348FFF7A0FB01211048FFF73EFB2A
:1017800001210F48FFF73AFB01220E490B48FFF7F2
:1017900072FB01220B490A48FFF76DFB1B216846CB
:1017A0000170012141708170FEF77AFE1C216846AC
:1017B0000170FEF775FE09B000BD00000038014061
:1017C00000440040050105000146064800228256FB
:1017D000914205D10020C043024A10700120704799
:1017E0000020FCE73400002070B50546002411E01D
:1017F00006206843094A80186200815A0848FFF7AA
:10180000DCFB00BF80210648FFF704FB0028F9D06D
:10181000601CC4B2032CEBDB70BD00001000002084
:10182000004400401FB5044601210220FEF782FE5D
:1018300020467D21C9004843401E0290072168468A
:10184000818000218181C18001A90B48FFF792F9B5
:10185000012211460848FFF782F9102168460170FD
:101860000321417001218170FEF71AFE0121024817
:10187000FFF754F91FBD0000000400406D61696E60
:10188000005553415254315F49525148616E646C66
:101890006572005553415254325F49525148616E4E
:1018A000646C65720054494D335F49525148616E12
:1018B000646C657200000000D81800080000002069
:1018C00058000000341000083019000858000020AB
:1018D000000400004410000800000000010203049E
:1018E0000102030406070809AA0001005500AA0026
:1018F00003005500AA0005005500AA000700550086
:10190000AA0009005500AA000B005500FF000000C6
:1019100000000000000000000000000000000000C7
:1019200000000000000000000000000000000000B7
:04000005080000C12E
:00000001FF
